{
  "contractName": "StarNotary",
  "abi": [
    {
      "constant": true,
      "inputs": [
        {
          "name": "interfaceId",
          "type": "bytes4"
        }
      ],
      "name": "supportsInterface",
      "outputs": [
        {
          "name": "",
          "type": "bool"
        }
      ],
      "payable": false,
      "stateMutability": "view",
      "type": "function"
    },
    {
      "constant": true,
      "inputs": [
        {
          "name": "",
          "type": "uint256"
        }
      ],
      "name": "starsForSale",
      "outputs": [
        {
          "name": "",
          "type": "uint256"
        }
      ],
      "payable": false,
      "stateMutability": "view",
      "type": "function"
    },
    {
      "constant": true,
      "inputs": [
        {
          "name": "tokenId",
          "type": "uint256"
        }
      ],
      "name": "getApproved",
      "outputs": [
        {
          "name": "",
          "type": "address"
        }
      ],
      "payable": false,
      "stateMutability": "view",
      "type": "function"
    },
    {
      "constant": false,
      "inputs": [
        {
          "name": "to",
          "type": "address"
        },
        {
          "name": "tokenId",
          "type": "uint256"
        }
      ],
      "name": "approve",
      "outputs": [],
      "payable": false,
      "stateMutability": "nonpayable",
      "type": "function"
    },
    {
      "constant": true,
      "inputs": [
        {
          "name": "",
          "type": "uint256"
        }
      ],
      "name": "tokenIdToStarInfo",
      "outputs": [
        {
          "name": "name",
          "type": "string"
        },
        {
          "name": "story",
          "type": "string"
        },
        {
          "name": "dec",
          "type": "string"
        },
        {
          "name": "mag",
          "type": "string"
        },
        {
          "name": "ra",
          "type": "string"
        }
      ],
      "payable": false,
      "stateMutability": "view",
      "type": "function"
    },
    {
      "constant": false,
      "inputs": [
        {
          "name": "from",
          "type": "address"
        },
        {
          "name": "to",
          "type": "address"
        },
        {
          "name": "tokenId",
          "type": "uint256"
        }
      ],
      "name": "transferFrom",
      "outputs": [],
      "payable": false,
      "stateMutability": "nonpayable",
      "type": "function"
    },
    {
      "constant": false,
      "inputs": [
        {
          "name": "from",
          "type": "address"
        },
        {
          "name": "to",
          "type": "address"
        },
        {
          "name": "tokenId",
          "type": "uint256"
        }
      ],
      "name": "safeTransferFrom",
      "outputs": [],
      "payable": false,
      "stateMutability": "nonpayable",
      "type": "function"
    },
    {
      "constant": true,
      "inputs": [
        {
          "name": "tokenId",
          "type": "uint256"
        }
      ],
      "name": "ownerOf",
      "outputs": [
        {
          "name": "",
          "type": "address"
        }
      ],
      "payable": false,
      "stateMutability": "view",
      "type": "function"
    },
    {
      "constant": true,
      "inputs": [
        {
          "name": "owner",
          "type": "address"
        }
      ],
      "name": "balanceOf",
      "outputs": [
        {
          "name": "",
          "type": "uint256"
        }
      ],
      "payable": false,
      "stateMutability": "view",
      "type": "function"
    },
    {
      "constant": false,
      "inputs": [
        {
          "name": "to",
          "type": "address"
        },
        {
          "name": "approved",
          "type": "bool"
        }
      ],
      "name": "setApprovalForAll",
      "outputs": [],
      "payable": false,
      "stateMutability": "nonpayable",
      "type": "function"
    },
    {
      "constant": false,
      "inputs": [
        {
          "name": "from",
          "type": "address"
        },
        {
          "name": "to",
          "type": "address"
        },
        {
          "name": "tokenId",
          "type": "uint256"
        },
        {
          "name": "_data",
          "type": "bytes"
        }
      ],
      "name": "safeTransferFrom",
      "outputs": [],
      "payable": false,
      "stateMutability": "nonpayable",
      "type": "function"
    },
    {
      "constant": true,
      "inputs": [
        {
          "name": "owner",
          "type": "address"
        },
        {
          "name": "operator",
          "type": "address"
        }
      ],
      "name": "isApprovedForAll",
      "outputs": [
        {
          "name": "",
          "type": "bool"
        }
      ],
      "payable": false,
      "stateMutability": "view",
      "type": "function"
    },
    {
      "anonymous": false,
      "inputs": [
        {
          "indexed": true,
          "name": "from",
          "type": "address"
        },
        {
          "indexed": true,
          "name": "to",
          "type": "address"
        },
        {
          "indexed": true,
          "name": "tokenId",
          "type": "uint256"
        }
      ],
      "name": "Transfer",
      "type": "event"
    },
    {
      "anonymous": false,
      "inputs": [
        {
          "indexed": true,
          "name": "owner",
          "type": "address"
        },
        {
          "indexed": true,
          "name": "approved",
          "type": "address"
        },
        {
          "indexed": true,
          "name": "tokenId",
          "type": "uint256"
        }
      ],
      "name": "Approval",
      "type": "event"
    },
    {
      "anonymous": false,
      "inputs": [
        {
          "indexed": true,
          "name": "owner",
          "type": "address"
        },
        {
          "indexed": true,
          "name": "operator",
          "type": "address"
        },
        {
          "indexed": false,
          "name": "approved",
          "type": "bool"
        }
      ],
      "name": "ApprovalForAll",
      "type": "event"
    },
    {
      "constant": false,
      "inputs": [
        {
          "name": "_name",
          "type": "string"
        },
        {
          "name": "_story",
          "type": "string"
        },
        {
          "name": "_dec",
          "type": "string"
        },
        {
          "name": "_mag",
          "type": "string"
        },
        {
          "name": "_ra",
          "type": "string"
        }
      ],
      "name": "createStar",
      "outputs": [],
      "payable": false,
      "stateMutability": "nonpayable",
      "type": "function"
    },
    {
      "constant": false,
      "inputs": [
        {
          "name": "_tokenId",
          "type": "uint256"
        },
        {
          "name": "_price",
          "type": "uint256"
        }
      ],
      "name": "putStarUpForSale",
      "outputs": [],
      "payable": false,
      "stateMutability": "nonpayable",
      "type": "function"
    },
    {
      "constant": false,
      "inputs": [
        {
          "name": "_tokenId",
          "type": "uint256"
        }
      ],
      "name": "buyStar",
      "outputs": [],
      "payable": true,
      "stateMutability": "payable",
      "type": "function"
    }
  ],
  "bytecode": "0x6080604052620000416301ffc9a77c01000000000000000000000000000000000000000000000000000000000262000084640100000000026401000000009004565b6200007e6380ac58cd7c01000000000000000000000000000000000000000000000000000000000262000084640100000000026401000000009004565b62000142565b63ffffffff7c010000000000000000000000000000000000000000000000000000000002817bffffffffffffffffffffffffffffffffffffffffffffffffffffffff191614151515620000d657600080fd5b6001600080837bffffffffffffffffffffffffffffffffffffffffffffffffffffffff19167bffffffffffffffffffffffffffffffffffffffffffffffffffffffff1916815260200190815260200160002060006101000a81548160ff02191690831515021790555050565b61297580620001526000396000f3006080604052600436106100db576000357c0100000000000000000000000000000000000000000000000000000000900463ffffffff16806301ffc9a7146100e05780630564b13014610144578063081812fc14610185578063095ea7b3146101f25780631967fd981461023f57806323b872dd146104955780632f1c34ef14610502578063316a43611461052257806342842e0e146105595780635f3ff33c146105c65780636352211e1461074757806370a08231146107b4578063a22cb4651461080b578063b88d4fde1461085a578063e985e9c51461090d575b600080fd5b3480156100ec57600080fd5b5061012a60048036038101908080357bffffffffffffffffffffffffffffffffffffffffffffffffffffffff19169060200190929190505050610988565b604051808215151515815260200191505060405180910390f35b34801561015057600080fd5b5061016f600480360381019080803590602001909291905050506109ef565b6040518082815260200191505060405180910390f35b34801561019157600080fd5b506101b060048036038101908080359060200190929190505050610a07565b604051808273ffffffffffffffffffffffffffffffffffffffff1673ffffffffffffffffffffffffffffffffffffffff16815260200191505060405180910390f35b3480156101fe57600080fd5b5061023d600480360381019080803573ffffffffffffffffffffffffffffffffffffffff16906020019092919080359060200190929190505050610a58565b005b34801561024b57600080fd5b5061026a60048036038101908080359060200190929190505050610b9d565b60405180806020018060200180602001806020018060200186810386528b818151815260200191508051906020019080838360005b838110156102ba57808201518184015260208101905061029f565b50505050905090810190601f1680156102e75780820380516001836020036101000a031916815260200191505b5086810385528a818151815260200191508051906020019080838360005b83811015610320578082015181840152602081019050610305565b50505050905090810190601f16801561034d5780820380516001836020036101000a031916815260200191505b50868103845289818151815260200191508051906020019080838360005b8381101561038657808201518184015260208101905061036b565b50505050905090810190601f1680156103b35780820380516001836020036101000a031916815260200191505b50868103835288818151815260200191508051906020019080838360005b838110156103ec5780820151818401526020810190506103d1565b50505050905090810190601f1680156104195780820380516001836020036101000a031916815260200191505b50868103825287818151815260200191508051906020019080838360005b83811015610452578082015181840152602081019050610437565b50505050905090810190601f16801561047f5780820380516001836020036101000a031916815260200191505b509a505050505050505050505060405180910390f35b3480156104a157600080fd5b50610500600480360381019080803573ffffffffffffffffffffffffffffffffffffffff169060200190929190803573ffffffffffffffffffffffffffffffffffffffff16906020019092919080359060200190929190505050610ecb565b005b61052060048036038101908080359060200190929190505050610f9a565b005b34801561052e57600080fd5b506105576004803603810190808035906020019092919080359060200190929190505050611279565b005b34801561056557600080fd5b506105c4600480360381019080803573ffffffffffffffffffffffffffffffffffffffff169060200190929190803573ffffffffffffffffffffffffffffffffffffffff16906020019092919080359060200190929190505050611407565b005b3480156105d257600080fd5b50610745600480360381019080803590602001908201803590602001908080601f0160208091040260200160405190810160405280939291908181526020018383808284378201915050505050509192919290803590602001908201803590602001908080601f0160208091040260200160405190810160405280939291908181526020018383808284378201915050505050509192919290803590602001908201803590602001908080601f0160208091040260200160405190810160405280939291908181526020018383808284378201915050505050509192919290803590602001908201803590602001908080601f0160208091040260200160405190810160405280939291908181526020018383808284378201915050505050509192919290803590602001908201803590602001908080601f0160208091040260200160405190810160405280939291908181526020018383808284378201915050505050509192919290505050611428565b005b34801561075357600080fd5b50610772600480360381019080803590602001909291905050506116f2565b604051808273ffffffffffffffffffffffffffffffffffffffff1673ffffffffffffffffffffffffffffffffffffffff16815260200191505060405180910390f35b3480156107c057600080fd5b506107f5600480360381019080803573ffffffffffffffffffffffffffffffffffffffff169060200190929190505050611770565b6040518082815260200191505060405180910390f35b34801561081757600080fd5b50610858600480360381019080803573ffffffffffffffffffffffffffffffffffffffff1690602001909291908035151590602001909291905050506117f4565b005b34801561086657600080fd5b5061090b600480360381019080803573ffffffffffffffffffffffffffffffffffffffff169060200190929190803573ffffffffffffffffffffffffffffffffffffffff16906020019092919080359060200190929190803590602001908201803590602001908080601f0160208091040260200160405190810160405280939291908181526020018383808284378201915050505050509192919290505050611930565b005b34801561091957600080fd5b5061096e600480360381019080803573ffffffffffffffffffffffffffffffffffffffff169060200190929190803573ffffffffffffffffffffffffffffffffffffffff169060200190929190505050611958565b604051808215151515815260200191505060405180910390f35b6000806000837bffffffffffffffffffffffffffffffffffffffffffffffffffffffff19167bffffffffffffffffffffffffffffffffffffffffffffffffffffffff1916815260200190815260200160002060009054906101000a900460ff169050919050565b60076020528060005260406000206000915090505481565b6000610a12826119ec565b1515610a1d57600080fd5b6002600083815260200190815260200160002060009054906101000a900473ffffffffffffffffffffffffffffffffffffffff169050919050565b6000610a63826116f2565b90508073ffffffffffffffffffffffffffffffffffffffff168373ffffffffffffffffffffffffffffffffffffffff1614151515610aa057600080fd5b8073ffffffffffffffffffffffffffffffffffffffff163373ffffffffffffffffffffffffffffffffffffffff161480610ae05750610adf8133611958565b5b1515610aeb57600080fd5b826002600084815260200190815260200160002060006101000a81548173ffffffffffffffffffffffffffffffffffffffff021916908373ffffffffffffffffffffffffffffffffffffffff160217905550818373ffffffffffffffffffffffffffffffffffffffff168273ffffffffffffffffffffffffffffffffffffffff167f8c5be1e5ebec7d5bd14f71427d1e84f3dd0314c0f7b2291e5b200ac8c7c3b92560405160405180910390a4505050565b6006602052806000526040600020600091509050806000018054600181600116156101000203166002900480601f016020809104026020016040519081016040528092919081815260200182805460018160011615610100020316600290048015610c495780601f10610c1e57610100808354040283529160200191610c49565b820191906000526020600020905b815481529060010190602001808311610c2c57829003601f168201915b505050505090806001018054600181600116156101000203166002900480601f016020809104026020016040519081016040528092919081815260200182805460018160011615610100020316600290048015610ce75780601f10610cbc57610100808354040283529160200191610ce7565b820191906000526020600020905b815481529060010190602001808311610cca57829003601f168201915b505050505090806002018054600181600116156101000203166002900480601f016020809104026020016040519081016040528092919081815260200182805460018160011615610100020316600290048015610d855780601f10610d5a57610100808354040283529160200191610d85565b820191906000526020600020905b815481529060010190602001808311610d6857829003601f168201915b505050505090806003018054600181600116156101000203166002900480601f016020809104026020016040519081016040528092919081815260200182805460018160011615610100020316600290048015610e235780601f10610df857610100808354040283529160200191610e23565b820191906000526020600020905b815481529060010190602001808311610e0657829003601f168201915b505050505090806004018054600181600116156101000203166002900480601f016020809104026020016040519081016040528092919081815260200182805460018160011615610100020316600290048015610ec15780601f10610e9657610100808354040283529160200191610ec1565b820191906000526020600020905b815481529060010190602001808311610ea457829003601f168201915b5050505050905085565b610ed53382611a5e565b1515610ee057600080fd5b600073ffffffffffffffffffffffffffffffffffffffff168273ffffffffffffffffffffffffffffffffffffffff1614151515610f1c57600080fd5b610f268382611af3565b610f308382611bf6565b610f3a8282611d25565b808273ffffffffffffffffffffffffffffffffffffffff168473ffffffffffffffffffffffffffffffffffffffff167fddf252ad1be2c89b69c2b068fc378daa952ba7f163c4a11628f55a4df523b3ef60405160405180910390a4505050565b6000806000600760008581526020019081526020016000205411151561104e576040517f08c379a00000000000000000000000000000000000000000000000000000000081526004018080602001828103825260318152602001807f53746172206d757374206265206c697374656420666f722073616c6520746f2081526020017f62652061626c6520746f2062757920697400000000000000000000000000000081525060400191505060405180910390fd5b600760008481526020019081526020016000205491503073ffffffffffffffffffffffffffffffffffffffff16636352211e846040518263ffffffff167c010000000000000000000000000000000000000000000000000000000002815260040180828152602001915050602060405180830381600087803b1580156110d357600080fd5b505af11580156110e7573d6000803e3d6000fd5b505050506040513d60208110156110fd57600080fd5b810190808051906020019092919050505090508134101515156111ae576040517f08c379a00000000000000000000000000000000000000000000000000000000081526004018080602001828103825260288152602001807f43616e6e6f74206275792061207374617220666f72206c657373207468616e2081526020017f69747320636f737400000000000000000000000000000000000000000000000081525060400191505060405180910390fd5b6111b88184611bf6565b6111c23384611d25565b600060076000858152602001908152602001600020819055508073ffffffffffffffffffffffffffffffffffffffff166108fc839081150290604051600060405180830381858888f19350505050158015611221573d6000803e3d6000fd5b5081341115611274573373ffffffffffffffffffffffffffffffffffffffff166108fc8334039081150290604051600060405180830381858888f19350505050158015611272573d6000803e3d6000fd5b505b505050565b3373ffffffffffffffffffffffffffffffffffffffff163073ffffffffffffffffffffffffffffffffffffffff16636352211e846040518263ffffffff167c010000000000000000000000000000000000000000000000000000000002815260040180828152602001915050602060405180830381600087803b1580156112ff57600080fd5b505af1158015611313573d6000803e3d6000fd5b505050506040513d602081101561132957600080fd5b810190808051906020019092919050505073ffffffffffffffffffffffffffffffffffffffff161415156113eb576040517f08c379a000000000000000000000000000000000000000000000000000000000815260040180806020018281038252602e8152602001807f4f6e6c7920746865206f776e6572206f662074686520737461722063616e207081526020017f757420697420666f722073616c6500000000000000000000000000000000000081525060400191505060405180910390fd5b8060076000848152602001908152602001600020819055505050565b6114238383836020604051908101604052806000815250611930565b505050565b611430612874565b6000600115156114438888888888611e7f565b15151415156114ba576040517f08c379a000000000000000000000000000000000000000000000000000000000815260040180806020018281038252600e8152602001807f696e70757473206d697373696e6700000000000000000000000000000000000081525060200191505060405180910390fd5b600015156114c9868686611ed1565b1515141515611540576040517f08c379a00000000000000000000000000000000000000000000000000000000081526004018080602001828103825260138152602001807f5374617220616c7265616479206578697374730000000000000000000000000081525060200191505060405180910390fd5b60a0604051908101604052808881526020018781526020018681526020018581526020018481525091506001600580549050019050816006600083815260200190815260200160002060008201518160000190805190602001906115a59291906128a4565b5060208201518160010190805190602001906115c29291906128a4565b5060408201518160020190805190602001906115df9291906128a4565b5060608201518160030190805190602001906115fc9291906128a4565b5060808201518160040190805190602001906116199291906128a4565b509050506005829080600181540180825580915050906001820390600052602060002090600502016000909192909190915060008201518160000190805190602001906116679291906128a4565b5060208201518160010190805190602001906116849291906128a4565b5060408201518160020190805190602001906116a19291906128a4565b5060608201518160030190805190602001906116be9291906128a4565b5060808201518160040190805190602001906116db9291906128a4565b505050506116e93382612557565b50505050505050565b6000806001600084815260200190815260200160002060009054906101000a900473ffffffffffffffffffffffffffffffffffffffff169050600073ffffffffffffffffffffffffffffffffffffffff168173ffffffffffffffffffffffffffffffffffffffff161415151561176757600080fd5b80915050919050565b60008073ffffffffffffffffffffffffffffffffffffffff168273ffffffffffffffffffffffffffffffffffffffff16141515156117ad57600080fd5b600360008373ffffffffffffffffffffffffffffffffffffffff1673ffffffffffffffffffffffffffffffffffffffff168152602001908152602001600020549050919050565b3373ffffffffffffffffffffffffffffffffffffffff168273ffffffffffffffffffffffffffffffffffffffff161415151561182f57600080fd5b80600460003373ffffffffffffffffffffffffffffffffffffffff1673ffffffffffffffffffffffffffffffffffffffff16815260200190815260200160002060008473ffffffffffffffffffffffffffffffffffffffff1673ffffffffffffffffffffffffffffffffffffffff16815260200190815260200160002060006101000a81548160ff0219169083151502179055508173ffffffffffffffffffffffffffffffffffffffff163373ffffffffffffffffffffffffffffffffffffffff167f17307eab39ab6107e8899845ad3d59bd9653f200f220920489ca2b5937696c3183604051808215151515815260200191505060405180910390a35050565b61193b848484610ecb565b611947848484846125fd565b151561195257600080fd5b50505050565b6000600460008473ffffffffffffffffffffffffffffffffffffffff1673ffffffffffffffffffffffffffffffffffffffff16815260200190815260200160002060008373ffffffffffffffffffffffffffffffffffffffff1673ffffffffffffffffffffffffffffffffffffffff16815260200190815260200160002060009054906101000a900460ff16905092915050565b6000806001600084815260200190815260200160002060009054906101000a900473ffffffffffffffffffffffffffffffffffffffff169050600073ffffffffffffffffffffffffffffffffffffffff168173ffffffffffffffffffffffffffffffffffffffff161415915050919050565b600080611a6a836116f2565b90508073ffffffffffffffffffffffffffffffffffffffff168473ffffffffffffffffffffffffffffffffffffffff161480611ad957508373ffffffffffffffffffffffffffffffffffffffff16611ac184610a07565b73ffffffffffffffffffffffffffffffffffffffff16145b80611aea5750611ae98185611958565b5b91505092915050565b8173ffffffffffffffffffffffffffffffffffffffff16611b13826116f2565b73ffffffffffffffffffffffffffffffffffffffff16141515611b3557600080fd5b600073ffffffffffffffffffffffffffffffffffffffff166002600083815260200190815260200160002060009054906101000a900473ffffffffffffffffffffffffffffffffffffffff1673ffffffffffffffffffffffffffffffffffffffff16141515611bf25760006002600083815260200190815260200160002060006101000a81548173ffffffffffffffffffffffffffffffffffffffff021916908373ffffffffffffffffffffffffffffffffffffffff1602179055505b5050565b8173ffffffffffffffffffffffffffffffffffffffff16611c16826116f2565b73ffffffffffffffffffffffffffffffffffffffff16141515611c3857600080fd5b611c8b6001600360008573ffffffffffffffffffffffffffffffffffffffff1673ffffffffffffffffffffffffffffffffffffffff1681526020019081526020016000205461281f90919063ffffffff16565b600360008473ffffffffffffffffffffffffffffffffffffffff1673ffffffffffffffffffffffffffffffffffffffff1681526020019081526020016000208190555060006001600083815260200190815260200160002060006101000a81548173ffffffffffffffffffffffffffffffffffffffff021916908373ffffffffffffffffffffffffffffffffffffffff1602179055505050565b600073ffffffffffffffffffffffffffffffffffffffff166001600083815260200190815260200160002060009054906101000a900473ffffffffffffffffffffffffffffffffffffffff1673ffffffffffffffffffffffffffffffffffffffff16141515611d9357600080fd5b816001600083815260200190815260200160002060006101000a81548173ffffffffffffffffffffffffffffffffffffffff021916908373ffffffffffffffffffffffffffffffffffffffff160217905550611e386001600360008573ffffffffffffffffffffffffffffffffffffffff1673ffffffffffffffffffffffffffffffffffffffff1681526020019081526020016000205461284090919063ffffffff16565b600360008473ffffffffffffffffffffffffffffffffffffffff1673ffffffffffffffffffffffffffffffffffffffff168152602001908152602001600020819055505050565b60008086511480611e91575060008551145b80611e9d575060008451145b80611ea9575060008351145b80611eb5575060008251145b15611ec35760009050611ec8565b600190505b95945050505050565b600080600090505b60058054905081101561254a57846040516020018080602001828103825283818151815260200191508051906020019080838360005b83811015611f2a578082015181840152602081019050611f0f565b50505050905090810190601f168015611f575780820380516001836020036101000a031916815260200191505b50925050506040516020818303038152906040526040518082805190602001908083835b602083101515611fa05780518252602082019150602081019050602083039250611f7b565b6001836020036101000a038019825116818451168082178552505050505050905001915050604051809103902060001916600582815481101515611fe057fe5b9060005260206000209060050201600201604051602001808060200182810382528381815460018160011615610100020316600290048152602001915080546001816001161561010002031660029004801561207d5780601f106120525761010080835404028352916020019161207d565b820191906000526020600020905b81548152906001019060200180831161206057829003601f168201915b5050925050506040516020818303038152906040526040518082805190602001908083835b6020831015156120c757805182526020820191506020810190506020830392506120a2565b6001836020036101000a0380198251168184511680821785525050505050509050019150506040518091039020600019161480156123145750836040516020018080602001828103825283818151815260200191508051906020019080838360005b83811015612144578082015181840152602081019050612129565b50505050905090810190601f1680156121715780820380516001836020036101000a031916815260200191505b50925050506040516020818303038152906040526040518082805190602001908083835b6020831015156121ba5780518252602082019150602081019050602083039250612195565b6001836020036101000a0380198251168184511680821785525050505050509050019150506040518091039020600019166005828154811015156121fa57fe5b906000526020600020906005020160030160405160200180806020018281038252838181546001816001161561010002031660029004815260200191508054600181600116156101000203166002900480156122975780601f1061226c57610100808354040283529160200191612297565b820191906000526020600020905b81548152906001019060200180831161227a57829003601f168201915b5050925050506040516020818303038152906040526040518082805190602001908083835b6020831015156122e157805182526020820191506020810190506020830392506122bc565b6001836020036101000a038019825116818451168082178552505050505050905001915050604051809103902060001916145b801561252f5750826040516020018080602001828103825283818151815260200191508051906020019080838360005b8381101561235f578082015181840152602081019050612344565b50505050905090810190601f16801561238c5780820380516001836020036101000a031916815260200191505b50925050506040516020818303038152906040526040518082805190602001908083835b6020831015156123d557805182526020820191506020810190506020830392506123b0565b6001836020036101000a03801982511681845116808217855250505050505090500191505060405180910390206000191660058281548110151561241557fe5b906000526020600020906005020160040160405160200180806020018281038252838181546001816001161561010002031660029004815260200191508054600181600116156101000203166002900480156124b25780601f10612487576101008083540402835291602001916124b2565b820191906000526020600020905b81548152906001019060200180831161249557829003601f168201915b5050925050506040516020818303038152906040526040518082805190602001908083835b6020831015156124fc57805182526020820191506020810190506020830392506124d7565b6001836020036101000a038019825116818451168082178552505050505050905001915050604051809103902060001916145b1561253d576001915061254f565b8080600101915050611ed9565b600091505b509392505050565b600073ffffffffffffffffffffffffffffffffffffffff168273ffffffffffffffffffffffffffffffffffffffff161415151561259357600080fd5b61259d8282611d25565b808273ffffffffffffffffffffffffffffffffffffffff16600073ffffffffffffffffffffffffffffffffffffffff167fddf252ad1be2c89b69c2b068fc378daa952ba7f163c4a11628f55a4df523b3ef60405160405180910390a45050565b60008061261f8573ffffffffffffffffffffffffffffffffffffffff16612861565b151561262e5760019150612816565b8473ffffffffffffffffffffffffffffffffffffffff1663150b7a02338887876040518563ffffffff167c0100000000000000000000000000000000000000000000000000000000028152600401808573ffffffffffffffffffffffffffffffffffffffff1673ffffffffffffffffffffffffffffffffffffffff1681526020018473ffffffffffffffffffffffffffffffffffffffff1673ffffffffffffffffffffffffffffffffffffffff16815260200183815260200180602001828103825283818151815260200191508051906020019080838360005b83811015612723578082015181840152602081019050612708565b50505050905090810190601f1680156127505780820380516001836020036101000a031916815260200191505b5095505050505050602060405180830381600087803b15801561277257600080fd5b505af1158015612786573d6000803e3d6000fd5b505050506040513d602081101561279c57600080fd5b8101908080519060200190929190505050905063150b7a027c0100000000000000000000000000000000000000000000000000000000027bffffffffffffffffffffffffffffffffffffffffffffffffffffffff1916817bffffffffffffffffffffffffffffffffffffffffffffffffffffffff19161491505b50949350505050565b60008083831115151561283157600080fd5b82840390508091505092915050565b600080828401905083811015151561285757600080fd5b8091505092915050565b600080823b905060008111915050919050565b60a06040519081016040528060608152602001606081526020016060815260200160608152602001606081525090565b828054600181600116156101000203166002900490600052602060002090601f016020900481019282601f106128e557805160ff1916838001178555612913565b82800160010185558215612913579182015b828111156129125782518255916020019190600101906128f7565b5b5090506129209190612924565b5090565b61294691905b8082111561294257600081600090555060010161292a565b5090565b905600a165627a7a7230582059bf10010c72c7634f9f7c46e979a1aa424bcdb20df7eb88ddc664987ba155060029",
  "source": "pragma solidity ^0.4.23;\n\nimport \"openzeppelin-solidity/contracts/token/ERC721/ERC721.sol\";\n\ncontract StarNotary is ERC721 {\n\n    struct Star {\n        string name;\n        string story;\n        string dec;\n        string mag;\n        string ra;\n    }\n\n    // List of existing stars\n    Star[] stars;\n\n    mapping(uint256 => Star) public tokenIdToStarInfo;\n    mapping(uint256 => uint256) public starsForSale;\n\n    function createStar(string _name, string _story, string _dec, string _mag, string _ra) public {\n        require(_checkBlankInputs(_name, _story, _dec, _mag, _ra) == true, \"inputs missing\");\n        require(_checkIfStarExist(_dec, _mag, _ra) == false, \"Star already exists\");\n\n        // Create new star\n        Star memory newStar = Star(_name, _story, _dec, _mag, _ra);\n\n        // Assign tokenID to newly created star\n        uint256 _tokenId = stars.length + 1;\n        tokenIdToStarInfo[_tokenId] = newStar;\n\n        // Add newly created star to list of stars\n        stars.push(newStar);\n\n        _mint(msg.sender, _tokenId);\n    }\n\n    function putStarUpForSale(uint256 _tokenId, uint256 _price) public {\n        require(this.ownerOf(_tokenId) == msg.sender, \"Only the owner of the star can put it for sale\");\n\n        starsForSale[_tokenId] = _price;\n    }\n\n    function buyStar(uint256 _tokenId) public payable {\n        require(starsForSale[_tokenId] > 0, \"Star must be listed for sale to be able to buy it\");\n\n        uint256 starCost = starsForSale[_tokenId];\n        address starOwner = this.ownerOf(_tokenId);\n        require(msg.value >= starCost, \"Cannot buy a star for less than its cost\");\n\n        // Transfer token\n        _removeTokenFrom(starOwner, _tokenId);\n        _addTokenTo(msg.sender, _tokenId);\n\n        // Remove star from sale\n        starsForSale[_tokenId] = 0;\n\n        // Pay seller\n        starOwner.transfer(starCost);\n\n        // Return change to buyer\n        if(msg.value > starCost) {\n            msg.sender.transfer(msg.value - starCost);\n        }\n    }\n\n    function _checkBlankInputs(string _name, string _story, string _dec, string _mag, string _ra) internal pure returns (bool) {\n        // Check if any input string is empty\n        // See https://ethereum.stackexchange.com/questions/11039/how-can-you-check-if-a-string-is-empty-in-solidity#11040\n        if (bytes(_name).length == 0\n            || bytes(_story).length == 0\n            || bytes(_dec).length == 0\n            || bytes(_mag).length == 0\n            || bytes(_ra).length == 0) {\n            return false;\n        }\n        return true;\n    }\n\n    function _checkIfStarExist(string _dec, string _mag, string _ra) internal view returns (bool) {\n        for (uint index = 0; index < stars.length; index++) {\n            // Use hash function to compare coordinates (use less gas)\n            // See https://ethereum.stackexchange.com/questions/4559/operator-not-compatible-with-type-string-storage-ref-and-literal-string\n            if (keccak256(abi.encode(stars[index].dec)) == keccak256(abi.encode(_dec))\n            && keccak256(abi.encode(stars[index].mag)) == keccak256(abi.encode(_mag))\n            && keccak256(abi.encode(stars[index].ra)) == keccak256(abi.encode(_ra))) {\n                return true;\n            }\n        }\n\n        return false;\n    }\n\n    // Public function to expose internal function _checkIfStarExist to test suite.\n    // Uncomment following lines before running tests\n    //function publicCheckIfStarExist(string _dec, string _mag, string _ra) public view returns (bool) {\n    //    return _checkIfStarExist(_dec, _mag, _ra);\n    //}\n\n\n\n\n\n}",
  "sourcePath": "/Users/laurent/Documents/Blockchain Developer Nanodegree/Project 5 - starter code/Project 5 - Boilerplate with Zeppelin/smart_contracts/contracts/StarNotary.sol",
  "compiler": {
    "name": "solc",
    "version": "0.4.24+commit.e67f0147.Emscripten.clang"
  },
  "schemaVersion": "2.0.1",
  "updatedAt": "2018-11-06T21:02:09.770Z"
}